:0400000013EF00F00A
:060008007E82BAED10F04B
:100018007E80E0CF01F001C0E0FF7E9010004DEF40
:0200280010F0D6
:10100000003738392F3435362A3132332D23303DED
:101010002B252E326600256C75002575000056EFD5
:101020000AF0AC94AC98B89643C0D9FF44C0DAFF3C
:10103000DECF02F0DECF03F0DECF04F0DECF05F02E
:10104000000EAFEC0EF002C014F003C015F004C0A7
:1010500016F005C017F0000E106E240E116EF40E7F
:10106000126E4A0E136EE2EC0CF010C04BF011C081
:101070004CF012C04DF013C04EF0000E2D6E000E5D
:101080002E6E800E2F6EBF0E306E000E146E000E90
:10109000156E800E166E420E176E4BC010F04CC0CF
:1010A00011F04DC012F04EC013F0E2EC0CF010C085
:1010B00029F011C02AF012C02BF013C02CF082ECE2
:1010C0000AF029C039F02AC03AF02BC03BF02CC0FE
:1010D0003CF089EC0FF03950AF6E81EF0AF0AC8430
:1010E000AC98B89643C0D9FF44C0DAFFDECF02F017
:1010F000DECF03F0DECF04F0DECF05F0000EAFEC64
:101100000EF002C014F003C015F004C016F005C0C4
:1011100017F0000E106E240E116EF40E126E4A0EB1
:10112000136EE2EC0CF010C04BF011C04CF012C08A
:101130004DF013C04EF0000E2D6E000E2E6E800E80
:101140002F6EBF0E306E000E146E000E156E800EE8
:10115000166E410E176E4BC010F04CC011F04DC012
:1011600012F04EC013F0E2EC0CF010C029F011C0E8
:101170002AF012C02BF013C02CF082EC0AF029C028
:1011800039F02AC03AF02BC03BF02CC03CF089EC7F
:101190000FF03950AF6E81EF0AF0AC94AC98B8867E
:1011A00043C0D9FF44C0DAFFDECF02F0DECF03F048
:1011B000DECF04F0DECF05F0000EAFEC0EF002C083
:1011C00014F003C015F004C016F005C017F0000EAF
:1011D000106E240E116EF40E126E4A0E136EE2ECB7
:1011E0000CF010C04BF011C04CF012C04DF013C009
:1011F0004EF0000E146E000E156E800E166E410E2F
:10120000176E4BC010F04CC011F04DC012F04EC024
:1012100013F0E2EC0CF010C029F011C02AF012C05B
:101220002BF013C02CF0000E2D6E000E2E6E800ED3
:101230002F6EBF0E306E82EC0AF029C047F02AC034
:1012400048F02BC049F02CC04AF047C039F048C0E4
:101250003AF049C03BF04AC03CF089EC0FF03950FD
:10126000AF6E47C039F048C03AF049C03BF04AC0C1
:101270003CF089EC0FF03AC039F03BC03AF03CC08A
:101280003BF03C6A3950B06E81EF0AF0AC84AC9808
:10129000B88643C0D9FF44C0DAFFDECF02F0DECF0C
:1012A00003F0DECF04F0DECF05F0000EAFEC0EF061
:1012B00002C014F003C015F004C016F005C017F00A
:1012C000000E106E240E116EF40E126E4A0E136E86
:1012D000E2EC0CF010C04BF011C04CF012C04DF01D
:1012E00013C04EF0000E146E000E156E800E166EBA
:1012F000400E176E4BC010F04CC011F04DC012F0F4
:101300004EC013F0E2EC0CF010C029F011C02AF02E
:1013100012C02BF013C02CF0000E2D6E000E2E6E9E
:10132000800E2F6EBF0E306E82EC0AF029C047F09F
:101330002AC048F02BC049F02CC04AF025EF09F034
:10134000AC88B89643C0D9FF44C0DAFFDECF02F0C4
:10135000DECF03F0DECF04F0DECF05F0000EAFEC01
:101360000EF002C014F003C015F004C016F005C062
:1013700017F0000E106E240E116EF40E126E4A0E4F
:10138000136EE2EC0CF010C04BF011C04CF012C028
:101390004DF013C04EF0000E2D6E000E2E6E800E1E
:1013A0002F6EBF0E306E000E146E000E156E800E86
:1013B000166E400E176E4BC010F04CC011F04DC0B1
:1013C00012F04EC013F0E2EC0CF010C029F011C086
:1013D0002AF012C02BF013C02CF082EC0AF029C0C6
:1013E00039F02AC03AF02BC03BF02CC03CF089EC1D
:1013F0000FF03950AF6E81EF0AF0AC88B88643C069
:10140000D9FF44C0DAFFDECF02F0DECF03F0DECF3B
:1014100004F0DECF05F0000EAFEC0EF002C014F0C9
:1014200003C015F004C016F005C017F0000E106ED2
:10143000240E116EF40E126E4A0E136EE2EC0CF0D6
:1014400010C04BF011C04CF012C04DF013C04EF064
:10145000000E146E000E156E800E166E400E176E86
:101460004BC010F04CC011F04DC012F04EC013F044
:10147000E2EC0CF010C029F011C02AF012C02BF0E1
:1014800013C02CF0000E2D6E000E2E6E800E2F6EEF
:10149000BF0E306E82EC0AF029C047F02AC048F037
:1014A0002BC049F02CC04AF025EF09F020EE04F0E3
:1014B0004350D9264450DA22DF50456E466A4650E2
:1014C000000AD8B466EF0AF081EF0AF04550000A2E
:1014D000D8B411EF08F0010AD8B46FEF08F0030A8E
:1014E000D8B4CDEF08F0010AD8B446EF09F0070AE6
:1014F000D8B4A0EF09F0020AD8B4FDEF09F081EFEB
:101500000AF012002C50800B356E2C502C24376EB4
:101510002BAE8DEF0AF08FEF0AF090EF0AF03780D4
:101520003750D8B496EF0AF098EF0AF0ADEF0AF012
:101530003728D8A49EEF0AF0A0EF0AF0A8EF0AF02F
:10154000000E296E000E2A6E000E2B6E000E2C6E01
:101550002B8E000E2C6EB5EF0AF0000E296E000ED9
:101560002A6E000E2B6E000E2C6E3050800B366EE5
:1015700035503618D8B4BFEF0AF0C1EF0AF0C2EF09
:101580000AF0358C30503024366E2FAECAEF0AF098
:10159000CCEF0AF0CDEF0AF036803650D8B4D3EF56
:1015A0000AF0D5EF0AF0EAEF0AF03628D8A4DBEF0C
:1015B0000AF0DDEF0AF0E5EF0AF0000E2D6E000EE6
:1015C0002E6E000E2F6E000E306E2F8E000E306EBF
:1015D000F2EF0AF0000E2D6E000E2E6E000E2F6E32
:1015E000000E306E3750365CD8B0F9EF0AF0FBEFE2
:1015F0000AF022EF0BF035AC00EF0BF002EF0BF02E
:1016000004EF0BF0800E351A37C038F036C037F0D3
:1016100038C036F029C038F02DC029F038C02DF080
:101620002AC038F02EC02AF038C02EF02BC038F077
:101630002FC02BF038C02FF02CC038F030C02CF069
:1016400038C030F0000E386E375036C031F0326A94
:10165000315E000E325A32BE37EF0BF0325009E1E4
:101660001A0E315CD8A037EF0BF039EF0BF070EFAA
:101670000BF029502A102B102C10D8A442EF0BF09D
:1016800045EF0BF0010E46EF0BF0000E386E000E2A
:10169000296E000E2A6E000E2B6E000E2C6E36C0C8
:1016A00037F079EF0BF038A058EF0BF05AEF0BF052
:1016B00060EF0BF0D89038300109386E62EF0BF014
:1016C000D890383229A067EF0BF069EF0BF06AEF82
:1016D0000BF0388E2C342C322B322A322932372A16
:1016E0003650375CD8A077EF0BF079EF0BF053EF63
:1016F0000BF035BC7EEF0BF080EF0BF0C0EF0BF082
:101700003750D8A486EF0BF088EF0BF092EF0BF078
:10171000000E296E000E2A6E000E2B6E000E2C6E2F
:10172000E1EF0CF02D5029262E502A222F502B228B
:1017300030502C222CA09FEF0BF0A1EF0BF04DEFBF
:101740000CF038A0A6EF0BF0A8EF0BF0AEEF0BF00B
:10175000D89038300109386EB0EF0BF0D89038329D
:1017600029A0B5EF0BF0B7EF0BF0B8EF0BF0388E08
:101770002C342C322B322A322932372A4DEF0CF0FE
:101780002D50295C2E502A582F502B582C50800A4F
:10179000316E3050800A3158D8B0D1EF0BF0D3EF12
:1017A0000BF0FEEF0BF029502D5C316E2A502E58B5
:1017B000326E2B502F58336E2C503058346EFF0E33
:1017C0003124296EFF0E32202A6EFF0E33202B6E3D
:1017D000FF0E34202C6E800E351A386C3850D8A489
:1017E000F4EF0BF0F6EF0BF006EF0CF0010E2926EC
:1017F000000E2A222B222C2206EF0CF02D50295EFF
:101800002E502A5A2F502B5A30502C5A29502A1019
:101810002B102C10D8A40FEF0CF011EF0CF046EFAA
:101820000CF03850D8A417EF0CF019EF0CF046EF7D
:101830000CF0000E296E000E2A6E000E2B6E000EAC
:101840002C6EE1EF0CF0D89029362A362B362C3648
:1018500038AE2DEF0CF02FEF0CF030EF0CF02980AC
:1018600038A035EF0CF037EF0CF03BEF0CF0D880E0
:1018700038363DEF0CF0D89038363750D8B443EFB7
:101880000CF045EF0CF046EF0CF037062BAE4BEFAB
:101890000CF04DEF0CF023EF0CF0000E366E38AE6E
:1018A00054EF0CF056EF0CF06EEF0CF038C031F046
:1018B0007F0E3116D8B45FEF0CF061EF0CF065EFDE
:1018C0000CF0010E366E6EEF0CF029A06AEF0CF0F2
:1018D0006CEF0CF06EEF0CF061EF0CF03650D8B4FA
:1018E00074EF0CF076EF0CF0A1EF0CF0010E29264E
:1018F000000E2A222B222C222CA081EF0CF083EF49
:101900000CF0A1EF0CF029C031F02AC032F02BC04E
:1019100033F02CC034F0343434323332323231329A
:1019200031C029F032C02AF033C02BF034C02CF083
:101930003728D8B49EEF0CF0A0EF0CF0A1EF0CF01C
:10194000372A3728D8B4A7EF0CF0A9EF0CF0B1EF85
:101950000CF03750D8A4AFEF0CF0B1EF0CF0C3EFA0
:101960000CF0000E296E000E2A6E000E2B6E000E7B
:101970002C6E3750D8A4BFEF0CF0C1EF0CF0C3EFC2
:101980000CF0000E356E37A0C8EF0CF0CAEF0CF06B
:10199000CDEF0CF02B8ECEEF0CF02B9ED890373085
:1019A0002C6E35AED6EF0CF0D8EF0CF0D9EF0CF072
:1019B0002C8E29C029F02AC02AF02BC02BF02CC075
:1019C0002CF012001350800B206E13501324276E3E
:1019D00012AEEDEF0CF0EFEF0CF0F0EF0CF0278013
:1019E0002750D8B4F6EF0CF0F8EF0CF00DEF0DF037
:1019F0002728D8A4FEEF0CF000EF0DF008EF0DF053
:101A0000000E106E000E116E000E126E000E136EA0
:101A1000128E000E136E15EF0DF0000E106E000EFC
:101A2000116E000E126E000E136E1750800B201AEE
:101A300017501724286E16AE20EF0DF022EF0DF090
:101A400023EF0DF028802850D8B429EF0DF02BEFAC
:101A50000DF040EF0DF02828D8A431EF0DF033EF52
:101A60000DF03BEF0DF0000E146E000E156E000E23
:101A7000166E000E176E168E000E176E48EF0DF0E4
:101A8000000E146E000E156E000E166E000E176E10
:101A90001450151016101710D8A451EF0DF053EF75
:101AA0000DF06BEF0DF0000E106E000E116E000EBB
:101AB000126E000E136E800E12127F0E1312205043
:101AC000131210C010F011C011F012C012F013C0A8
:101AD00013F0AEEF0EF02750D8A471EF0DF073EFB6
:101AE0000DF07DEF0DF0000E106E000E116E000E69
:101AF000126E000E136EAEEF0EF0285027C018F0D5
:101B0000196A185E000E195A7F0E1824216E000EF5
:101B10001920226E10C01CF011C01DF012C01EF062
:101B200013C01FF0000E106E000E116E000E126E2C
:101B3000000E136E000E236E000E246E000E256E36
:101B4000000E266E000E286EDEEF0DF02850D8B481
:101B5000ACEF0DF0AEEF0DF0C5EF0DF0D8901C36E8
:101B60001D361E361F36D8901036113612361336F3
:101B700026AEBDEF0DF0BFEF0DF0C0EF0DF0108001
:101B8000D890233624362536263614501C5C155042
:101B90001D5816501E5817501F58D8A0D2EF0DF0E0
:101BA000D4EF0DF0DDEF0DF0268C14501C5E1550B7
:101BB0001D5A16501E5A17501F5A282A190E2864EB
:101BC000E4EF0DF0E6EF0DF0A6EF0DF01C501D1048
:101BD0001E101F10D8B4EFEF0DF0F1EF0DF009EF6C
:101BE0000EF0238009EF0EF0D89010361136123621
:101BF000133626AEFEEF0DF000EF0EF001EF0EF003
:101C00001080D89023362436253626362106D8A0D3
:101C1000220612AE0EEF0EF010EF0EF0F4EF0DF004
:101C2000000E286E26AE17EF0EF019EF0EF03DEF06
:101C30000EF0FF0E2314186EFF0E2414196EFF0E03
:101C400025141A6E7F0E26141B6E185019101A10C8
:101C50001B10D8B42EEF0EF030EF0EF034EF0EF074
:101C6000010E286E3DEF0EF010A039EF0EF03BEFA5
:101C70000EF03DEF0EF030EF0EF02850D8B443EFE9
:101C80000EF045EF0EF069EF0EF0010E1026000E7B
:101C900011221222132213A050EF0EF052EF0EF079
:101CA00069EF0EF010C018F011C019F012C01AF050
:101CB00013C01BF01B341B321A321932183218C0F1
:101CC00010F019C011F01AC012F01BC013F0214A15
:101CD000222A22BE74EF0EF0225008E12128D8A05B
:101CE00074EF0EF076EF0EF081EF0EF0000E226E24
:101CF0002168000E106E000E116E000E126E000EA6
:101D0000136E22BE8EEF0EF0225006E12104D8B0F1
:101D10008CEF0EF08EEF0EF09CEF0EF0000E226EA8
:101D2000000E216E000E106E000E116E000E126E6F
:101D3000000E136E000E206E21C027F027A0A3EF27
:101D40000EF0A5EF0EF0A8EF0EF0128EA9EF0EF038
:101D5000129ED8902730136E5FEF0DF012000A6EBE
:101D60000A50D8B4B6EF0EF0B8EF0EF0DAEF0EF07E
:101D700005BEBFEF0EF0BDEF0EF0DAEF0EF002C0C1
:101D800006F003C007F004C008F005C009F0061E05
:101D9000071E081E091E062A000E07220822092215
:101DA00006C00CF007C00DF008C00EF009C00FF01F
:101DB000E2EF0EF002C00CF003C00DF004C00EF014
:101DC00005C00FF00250031004100510D8A4EBEF6B
:101DD0000EF0EDEF0EF0F7EF0EF0000E026E000EBB
:101DE000036E000E046E000E056E88EF0FF0960E67
:101DF0000B6E01EF0FF00B2AD8900F320E320D321E
:101E00000C32000E0C14066E000E0D14076E000E40
:101E10000E14086EFE0E0F14096E065007100810FF
:101E20000910D8A416EF0FF018EF0FF0FBEF0EF02B
:101E300026EF0FF00B2A010E0C26000E0D220E22AB
:101E40000F22D8900F320E320D320C32000E0C14CD
:101E5000066E000E0D14076E000E0E14086EFF0EB7
:101E60000F14096E0650071008100910D8A43BEF94
:101E70000FF03DEF0FF01AEF0FF045EF0FF00B06EC
:101E8000D8900C360D360E360F360EBE4AEF0FF0D8
:101E90004CEF0FF054EF0FF0020E0B6052EF0FF00B
:101EA00054EF0FF03FEF0FF00BB059EF0FF05BEF77
:101EB0000FF05CEF0FF00E9ED8900B320BC006F0C7
:101EC000076A086A096A06C009F0086A076A066AAA
:101ED00006500C1207500D1208500E1209500F1226
:101EE0000A50D8B476EF0FF078EF0FF080EF0FF0D4
:101EF00005BE7FEF0FF07DEF0FF080EF0FF00F8E3C
:101F00000CC002F00DC003F00EC004F00FC005F0CD
:101F100012003B343C34426E4250D8A492EF0FF092
:101F200094EF0FF09EEF0FF0000E396E000E3A6E38
:101F3000000E3B6E000E3C6E0BEF10F039C03DF012
:101F40003AC03EF03BC03FF03CC040F0200EAEEF48
:101F50000FF0D89040323F323E323D32E82EA9EFAA
:101F60000FF03D50416E3B8EFF0E3916FF0E3A16B4
:101F7000FF0E3B16000E3C16960E425E42BEC5EFAB
:101F80000FF0C3EF0FF0DBEF0FF04250800A970F16
:101F9000D8B0CDEF0FF0CFEF0FF0D1EF0FF094EFFF
:101FA0000FF0D8903C323B323A323932423ED1EFD8
:101FB0000FF0F3EF0FF01F0E4264E1EF0FF0E3EFCD
:101FC0000FF0EBEF0FF094EF0FF0D89039363A3670
:101FD0003B363C3642064250D8A4F1EF0FF0F3EF07
:101FE0000FF0E5EF0FF04150D8B4F9EF0FF0FBEF31
:101FF0000FF003EF10F03C1E3B1E3A1E396C000E32
:102000003A223B223C2239C039F03AC03AF03BC078
:102010003BF03CC03CF012004F505010D8A413EFDE
:1020200010F015EF10F019EF10F0000E516E4BEF9D
:1020300010F0AB9E948C948E4FC043F050C044F08F
:102040000FEC08F020EE05F04F50D9265050DA2260
:10205000DFA02DEF10F02FEF10F035EF10F04FC094
:1020600002F050C003F0CDEC10F020EE06F04F501F
:10207000D9265050DA22DFA040EF10F042EF10F0E6
:1020800048EF10F04FC002F050C003F0DDEC10F04C
:10209000AB8E010E516E51501200480EF66E210E9D
:1020A000F76E000EF86E00EE80F010EE2BF00900D7
:1020B000F5CFEEFFE550E150FAE1280EF66E220E64
:1020C000F76E000EF86E00EE7AF010EE04F00900E4
:1020D000F5CFEEFFE550E150FAE100EEABF0230E54
:1020E000EE6AE806FDE100EE55F0250EEE6AE80620
:1020F000FDE17E907E920001EDEF10F003500410A0
:10210000D8A485EF10F087EF10F094EF10F0000ED8
:10211000056EA2EF10F003C0D9FF04C0DAFFDF5054
:10212000FBEC10F0034A042A03C0D9FF04C0DAFF15
:10213000DF50D8A49EEF10F0A0EF10F08BEF10F05E
:10214000010E056E05501200920F930F940F950F1C
:10215000960F890F8A0F8B0F8C0F8D0F800F810FB9
:10216000820F830F840F802500000301010041547A
:032170000D0A0055
:1021740006009EACC0EF10F0C2EF10F0CBEF10F0F1
:102184009DACC7EF10F0C9EF10F0CBEF10F016ECD8
:1021940011F07E92110020EE05F00250D926035072
:1021A400DA22DFA2D8EF10F0DAEF10F0DBEF10F054
:1021B400AC8CAC8A120020EE06F00250D9260350F3
:1021C400DA22DFA2E8EF10F0EAEF10F0EBEF10F004
:1021D400AB8CAB8812000FEC11F0546EA60E036E9C
:1021E400000E046E7EEC10F05416F7EF10F013EFAF
:1021F40000F0026EACA201EF11F003EF11F0FCEF5E
:1022040010F002C0ADFF12009E0E4F6E000E506E15
:102214000CEC10F0526E5250120006EC11F0536E9A
:0C22240053501200010101019E9C1200A9
:020000040020DA
:08000000FFFFFFFFFFFFFFFF00
:020000040030CA
:0E000000FF02091EFF8181FF0FC00FE00F40BD
:00000001FF
